{
  "contractName": "FederatedModel",
  "abi": [
    {
      "inputs": [
        {
          "internalType": "uint256",
          "name": "id",
          "type": "uint256"
        },
        {
          "internalType": "uint256",
          "name": "od",
          "type": "uint256"
        },
        {
          "internalType": "int256",
          "name": "learning_rate_",
          "type": "int256"
        },
        {
          "internalType": "int256",
          "name": "precision_",
          "type": "int256"
        },
        {
          "internalType": "uint256",
          "name": "batchSize_",
          "type": "uint256"
        },
        {
          "internalType": "uint256",
          "name": "updateInterval_",
          "type": "uint256"
        }
      ],
      "stateMutability": "nonpayable",
      "type": "constructor"
    },
    {
      "inputs": [],
      "name": "administrator",
      "outputs": [
        {
          "internalType": "address",
          "name": "",
          "type": "address"
        }
      ],
      "stateMutability": "view",
      "type": "function",
      "constant": true
    },
    {
      "inputs": [
        {
          "internalType": "address",
          "name": "verifier_address",
          "type": "address"
        }
      ],
      "name": "updateVerifier",
      "outputs": [],
      "stateMutability": "nonpayable",
      "type": "function"
    },
    {
      "inputs": [
        {
          "internalType": "int256[][]",
          "name": "local_weights",
          "type": "int256[][]"
        },
        {
          "internalType": "int256[]",
          "name": "local_bias",
          "type": "int256[]"
        }
      ],
      "name": "initModel",
      "outputs": [],
      "stateMutability": "nonpayable",
      "type": "function"
    },
    {
      "inputs": [],
      "name": "map_temp_to_global",
      "outputs": [],
      "stateMutability": "nonpayable",
      "type": "function"
    },
    {
      "inputs": [],
      "name": "get_global_weights",
      "outputs": [
        {
          "internalType": "int256[][]",
          "name": "",
          "type": "int256[][]"
        }
      ],
      "stateMutability": "view",
      "type": "function",
      "constant": true
    },
    {
      "inputs": [],
      "name": "get_global_bias",
      "outputs": [
        {
          "internalType": "int256[]",
          "name": "",
          "type": "int256[]"
        }
      ],
      "stateMutability": "view",
      "type": "function",
      "constant": true
    },
    {
      "inputs": [],
      "name": "time_until_next_update_round",
      "outputs": [
        {
          "internalType": "int256",
          "name": "",
          "type": "int256"
        }
      ],
      "stateMutability": "nonpayable",
      "type": "function"
    },
    {
      "inputs": [],
      "name": "end_update_round",
      "outputs": [],
      "stateMutability": "nonpayable",
      "type": "function"
    },
    {
      "inputs": [],
      "name": "is_Training",
      "outputs": [
        {
          "internalType": "bool",
          "name": "",
          "type": "bool"
        }
      ],
      "stateMutability": "nonpayable",
      "type": "function"
    },
    {
      "inputs": [],
      "name": "roundUpdateOutstanding",
      "outputs": [
        {
          "internalType": "bool",
          "name": "",
          "type": "bool"
        }
      ],
      "stateMutability": "nonpayable",
      "type": "function"
    },
    {
      "inputs": [
        {
          "internalType": "int256[][]",
          "name": "local_weights",
          "type": "int256[][]"
        },
        {
          "internalType": "int256[]",
          "name": "local_bias",
          "type": "int256[]"
        },
        {
          "internalType": "uint256[2]",
          "name": "a",
          "type": "uint256[2]"
        },
        {
          "internalType": "uint256[2][2]",
          "name": "b",
          "type": "uint256[2][2]"
        },
        {
          "internalType": "uint256[2]",
          "name": "c",
          "type": "uint256[2]"
        },
        {
          "internalType": "uint256[183]",
          "name": "input",
          "type": "uint256[183]"
        }
      ],
      "name": "update_with_proof",
      "outputs": [],
      "stateMutability": "nonpayable",
      "type": "function"
    },
    {
      "inputs": [
        {
          "internalType": "int256[][]",
          "name": "local_weights",
          "type": "int256[][]"
        },
        {
          "internalType": "int256[]",
          "name": "local_bias",
          "type": "int256[]"
        }
      ],
      "name": "update_without_proof",
      "outputs": [],
      "stateMutability": "nonpayable",
      "type": "function"
    },
    {
      "inputs": [],
      "name": "participantsCount",
      "outputs": [
        {
          "internalType": "uint256",
          "name": "",
          "type": "uint256"
        }
      ],
      "stateMutability": "view",
      "type": "function",
      "constant": true
    },
    {
      "inputs": [
        {
          "internalType": "int256[][]",
          "name": "new_weights",
          "type": "int256[][]"
        }
      ],
      "name": "movingAverageWeights",
      "outputs": [],
      "stateMutability": "nonpayable",
      "type": "function"
    },
    {
      "inputs": [
        {
          "internalType": "int256[]",
          "name": "new_bias",
          "type": "int256[]"
        }
      ],
      "name": "movingAverageBias",
      "outputs": [],
      "stateMutability": "nonpayable",
      "type": "function"
    },
    {
      "inputs": [
        {
          "internalType": "int256",
          "name": "newLearnignRate",
          "type": "int256"
        }
      ],
      "name": "changeLearningRate",
      "outputs": [],
      "stateMutability": "nonpayable",
      "type": "function"
    },
    {
      "inputs": [],
      "name": "getLearningRate",
      "outputs": [
        {
          "internalType": "int256",
          "name": "",
          "type": "int256"
        }
      ],
      "stateMutability": "nonpayable",
      "type": "function"
    },
    {
      "inputs": [],
      "name": "getBatchSize",
      "outputs": [
        {
          "internalType": "uint256",
          "name": "",
          "type": "uint256"
        }
      ],
      "stateMutability": "nonpayable",
      "type": "function"
    },
    {
      "inputs": [],
      "name": "getRoundNumber",
      "outputs": [
        {
          "internalType": "uint256",
          "name": "",
          "type": "uint256"
        }
      ],
      "stateMutability": "nonpayable",
      "type": "function"
    },
    {
      "inputs": [],
      "name": "getInputDimension",
      "outputs": [
        {
          "internalType": "uint256",
          "name": "",
          "type": "uint256"
        }
      ],
      "stateMutability": "nonpayable",
      "type": "function"
    },
    {
      "inputs": [],
      "name": "getOutputDimension",
      "outputs": [
        {
          "internalType": "uint256",
          "name": "",
          "type": "uint256"
        }
      ],
      "stateMutability": "nonpayable",
      "type": "function"
    },
    {
      "inputs": [],
      "name": "getPrecision",
      "outputs": [
        {
          "internalType": "int256",
          "name": "",
          "type": "int256"
        }
      ],
      "stateMutability": "nonpayable",
      "type": "function"
    },
    {
      "inputs": [
        {
          "internalType": "int256",
          "name": "newPrecision",
          "type": "int256"
        }
      ],
      "name": "changePrecision",
      "outputs": [],
      "stateMutability": "nonpayable",
      "type": "function"
    },
    {
      "inputs": [
        {
          "internalType": "uint256[2]",
          "name": "a",
          "type": "uint256[2]"
        },
        {
          "internalType": "uint256[2][2]",
          "name": "b",
          "type": "uint256[2][2]"
        },
        {
          "internalType": "uint256[2]",
          "name": "c",
          "type": "uint256[2]"
        },
        {
          "internalType": "uint256[183]",
          "name": "input",
          "type": "uint256[183]"
        }
      ],
      "name": "checkZKP",
      "outputs": [
        {
          "internalType": "bool",
          "name": "",
          "type": "bool"
        }
      ],
      "stateMutability": "nonpayable",
      "type": "function"
    },
    {
      "inputs": [],
      "name": "stopTraining",
      "outputs": [],
      "stateMutability": "nonpayable",
      "type": "function"
    },
    {
      "inputs": [],
      "name": "startTraining",
      "outputs": [],
      "stateMutability": "nonpayable",
      "type": "function"
    }
  ],
  "bytecode": "0x6080604052600a805460ff19166001179055600f805460ff60a01b191690553480156200002b57600080fd5b5060405162002635380380620026358339810160408190526200004e916200009c565b6007849055600080546001600160a01b0319163217905560088590556009869055600e8290556005839055620000858142620000e6565b600c55600d5550506001600655506200010b915050565b60008060008060008060c08789031215620000b5578182fd5b865195506020870151945060408701519350606087015192506080870151915060a087015190509295509295509295565b600082198211156200010657634e487b7160e01b81526011600452602481fd5b500190565b61251a806200011b6000396000f3fe608060405234801561001057600080fd5b506004361061018e5760003560e01c8063a011a5b7116100de578063d5d1c6ee11610097578063dd60c89811610071578063dd60c898146102cf578063f53d0a8e146102d7578063fb4e20ea146102ec578063ff08cde1146102ff5761018e565b8063d5d1c6ee146102ac578063d661016a146102b4578063dbe0cd77146102bc5761018e565b8063a011a5b714610266578063a25f55d41461026e578063a74c900e14610276578063bd30222e1461027e578063c3cd313b14610291578063d41998cc146102995761018e565b806364ace1ee1161014b57806395c9290a1161012557806395c9290a146102235780639670c0bc1461023657806397fc007c1461023e57806399b16c5c146102515761018e565b806364ace1ee146101f35780636d05533b146102065780637c1cc4d21461020e5761018e565b8063091bf334146101935780630cde04561461019d578063211b1e22146101bb57806349cd87c4146101c3578063518cae2a146101d857806358043141146101e0575b600080fd5b61019b610312565b005b6101a5610529565b6040516101b29190612296565b60405180910390f35b6101a5610530565b6101cb610536565b6040516101b29190612219565b61019b61058e565b61019b6101ee36600461202b565b6105b1565b61019b610201366004611f34565b6105cd565b6101a56107a9565b6102166107be565b6040516101b2919061228b565b61019b61023136600461202b565b6107c7565b6101a56107e3565b61019b61024c366004611d9e565b6107e9565b61025961080b565b6040516101b2919061219d565b6101a56108a4565b6101a56108aa565b6102166108b0565b61019b61028c366004611e73565b6109ac565b6101a5610d7a565b61019b6102a7366004611e0b565b610d80565b61019b610fab565b61019b610fd1565b61019b6102ca366004611e0b565b6111e7565b6101a5611528565b6102df61152e565b6040516101b291906120f2565b6102166102fa366004611f5b565b61153d565b61019b61030d366004611dcc565b61161b565b6000546001600160a01b0316321461032957600080fd5b61033560046000611ba7565b61034160036000611bc5565b60005b6001548110156104a65760006001828154811061037157634e487b7160e01b600052603260045260246000fd5b6000918252602090912001546001600160401b038111156103a257634e487b7160e01b600052604160045260246000fd5b6040519080825280602002602001820160405280156103cb578160200160208202803683370190505b509050600182815481106103ef57634e487b7160e01b600052603260045260246000fd5b9060005260206000200180548060200260200160405190810160405280929190818152602001828054801561044357602002820191906000526020600020905b81548152602001906001019080831161042f575b5050600380546001810182556000919091528451949550610491947fc2575a0e9e593c00f959f8c92f12db2869c3395a3b0502d05e2516446f71f85b90910193506020860192509050611be3565b5050808061049e9061247d565b915050610344565b5060005b600254811015610526576000600282815481106104d757634e487b7160e01b600052603260045260246000fd5b60009182526020822001546004805460018101825592527f8a35acfbc15ff81a39ae7d344fd709f28e8600b4aa8c65c6b64bfe7fe36bd19b90910155508061051e8161247d565b9150506104aa565b50565b6006545b90565b60085490565b6060600480548060200260200160405190810160405280929190818152602001828054801561058457602002820191906000526020600020905b815481526020019060010190808311610570575b5050505050905090565b6000546001600160a01b031632146105a557600080fd5b600a805460ff19169055565b6000546001600160a01b031632146105c857600080fd5b600555565b6000306001600160a01b031663dd60c8986040518163ffffffff1660e01b815260040160206040518083038186803b15801561060857600080fd5b505afa15801561061c573d6000803e3d6000fd5b505050506040513d601f19601f820116820180604052508101906106409190612043565b905060008113156107a45780600114156106d15760005b828110156106cb57600084848381811061068157634e487b7160e01b600052603260045260246000fd5b90506020020135905080600283815481106106ac57634e487b7160e01b600052603260045260246000fd5b60009182526020909120015550806106c38161247d565b915050610657565b506107a4565b60005b828110156107a2576000600282815481106106ff57634e487b7160e01b600052603260045260246000fd5b90600052602060002001549050600085858481811061072e57634e487b7160e01b600052603260045260246000fd5b9050602002013590506000848383610746919061243e565b6107509190612404565b61075a90846123ab565b9050806002858154811061077e57634e487b7160e01b600052603260045260246000fd5b9060005260206000200181905550505050808061079a9061247d565b9150506106d4565b505b505050565b600042600c546107b9919061243e565b905090565b600a5460ff1690565b6000546001600160a01b031632146107de57600080fd5b600755565b60055490565b600f80546001600160a01b0319166001600160a01b0392909216919091179055565b60606003805480602002602001604051908101604052809291908181526020016000905b8282101561089b5760008481526020908190208301805460408051828502810185019091528181529283018282801561088757602002820191906000526020600020905b815481526020019060010190808311610873575b50505050508152602001906001019061082f565b50505050905090565b60095490565b600e5490565b600f54600090600160a01b900460ff16156109a45732600160005b306001600160a01b031663dd60c8986040518163ffffffff1660e01b815260040160206040518083038186803b15801561090457600080fd5b505afa158015610918573d6000803e3d6000fd5b505050506040513d601f19601f8201168201806040525081019061093c9190612043565b81101561099a57600b818154811061096457634e487b7160e01b600052603260045260246000fd5b6000918252602090912001546001600160a01b038481169116141561098857600091505b806109928161247d565b9150506108cb565b50915061052d9050565b50600061052d565b600a5460ff166109bb57600080fd5b604051637da7107560e11b8152309063fb4e20ea906109e490879087908790879060040161222c565b602060405180830381600087803b1580156109fe57600080fd5b505af1158015610a12573d6000803e3d6000fd5b505050506040513d601f19601f82011682018060405250810190610a36919061200b565b610a3f57600080fd5b60408051631bac191360e31b8152905160019182913291309163dd60c89891600480820192602092909190829003018186803b158015610a7e57600080fd5b505afa158015610a92573d6000803e3d6000fd5b505050506040513d601f19601f82011682018060405250810190610ab69190612043565b610ba957600b80546001810182556000919091526000805160206124c58339815191520180546001600160a01b0319166001600160a01b038316179055604051600162f7321f60e01b03198152309063ff08cde190610b1b908e908e90600401612106565b600060405180830381600087803b158015610b3557600080fd5b505af1158015610b49573d6000803e3d6000fd5b505060405163325670f760e11b81523092506364ace1ee9150610b72908c908c906004016121fd565b600060405180830381600087803b158015610b8c57600080fd5b505af1158015610ba0573d6000803e3d6000fd5b50505050610d6d565b60005b306001600160a01b031663dd60c8986040518163ffffffff1660e01b815260040160206040518083038186803b158015610be557600080fd5b505afa158015610bf9573d6000803e3d6000fd5b505050506040513d601f19601f82011682018060405250810190610c1d9190612043565b811015610c7b57600b8181548110610c4557634e487b7160e01b600052603260045260246000fd5b6000918252602090912001546001600160a01b0383811691161415610c6957600093505b80610c738161247d565b915050610bac565b508215610d6d57600b80546001810182556000919091526000805160206124c58339815191520180546001600160a01b0319166001600160a01b038316179055604051600162f7321f60e01b03198152309063ff08cde190610ce3908e908e90600401612106565b600060405180830381600087803b158015610cfd57600080fd5b505af1158015610d11573d6000803e3d6000fd5b505060405163325670f760e11b81523092506364ace1ee9150610d3a908c908c906004016121fd565b600060405180830381600087803b158015610d5457600080fd5b505af1158015610d68573d6000803e3d6000fd5b505050505b5050505050505050505050565b60075490565b610d8c60016000611bc5565b610d9860026000611ba7565b6008546001600160401b03811115610dc057634e487b7160e01b600052604160045260246000fd5b604051908082528060200260200182016040528015610de9578160200160208202803683370190505b508051610dfe91600291602090910190611be3565b5060005b600854811015610e7257828282818110610e2c57634e487b7160e01b600052603260045260246000fd5b9050602002013560028281548110610e5457634e487b7160e01b600052603260045260246000fd5b60009182526020909120015580610e6a8161247d565b915050610e02565b5060005b600854811015610f915760006009546001600160401b03811115610eaa57634e487b7160e01b600052604160045260246000fd5b604051908082528060200260200182016040528015610ed3578160200160208202803683370190505b509050858583818110610ef657634e487b7160e01b600052603260045260246000fd5b9050602002810190610f08919061231c565b80806020026020016040519081016040528093929190818152602001838360200280828437600092018290525060018054808201825591528451949550610f7c947fb10e2d527612073b26eecdfd717e6a320cf44b4afac2b0732d9fcbe2b7fa0cf690910193506020860192509050611be3565b50508080610f899061247d565b915050610e76565b5050600f805460ff60a01b1916600160a01b179055505050565b6000546001600160a01b03163214610fc257600080fd5b600a805460ff19166001179055565b600c5442106111e55760005b6001548110156111375760006001828154811061100a57634e487b7160e01b600052603260045260246000fd5b6000918252602090912001546001600160401b0381111561103b57634e487b7160e01b600052604160045260246000fd5b604051908082528060200260200182016040528015611064578160200160208202803683370190505b5090506001828154811061108857634e487b7160e01b600052603260045260246000fd5b906000526020600020018054806020026020016040519081016040528092919081815260200182805480156110dc57602002820191906000526020600020905b8154815260200190600101908083116110c8575b50505050509050806003838154811061110557634e487b7160e01b600052603260045260246000fd5b906000526020600020019080519060200190611122929190611be3565b5050808061112f9061247d565b915050610fdd565b5060005b6002548110156111b65760006002828154811061116857634e487b7160e01b600052603260045260246000fd5b90600052602060002001549050806004838154811061119757634e487b7160e01b600052603260045260246000fd5b60009182526020909120015550806111ae8161247d565b91505061113b565b50600d546111c490426123ec565b600c556111d3600b6000611ba7565b6006546111e19060016123ec565b6006555b565b600a5460ff166111f657600080fd5b60408051631bac191360e31b8152905160019182913291309163dd60c89891600480820192602092909190829003018186803b15801561123557600080fd5b505afa158015611249573d6000803e3d6000fd5b505050506040513d601f19601f8201168201806040525081019061126d9190612043565b61136057600b80546001810182556000919091526000805160206124c58339815191520180546001600160a01b0319166001600160a01b038316179055604051600162f7321f60e01b03198152309063ff08cde1906112d2908a908a90600401612106565b600060405180830381600087803b1580156112ec57600080fd5b505af1158015611300573d6000803e3d6000fd5b505060405163325670f760e11b81523092506364ace1ee915061132990889088906004016121fd565b600060405180830381600087803b15801561134357600080fd5b505af1158015611357573d6000803e3d6000fd5b5050505061151f565b60005b306001600160a01b031663dd60c8986040518163ffffffff1660e01b815260040160206040518083038186803b15801561139c57600080fd5b505afa1580156113b0573d6000803e3d6000fd5b505050506040513d601f19601f820116820180604052508101906113d49190612043565b81101561143257600b81815481106113fc57634e487b7160e01b600052603260045260246000fd5b6000918252602090912001546001600160a01b038381169116141561142057600093505b8061142a8161247d565b915050611363565b50821561151f57600b80546001810182556000919091526000805160206124c58339815191520180546001600160a01b0319166001600160a01b038316179055604051600162f7321f60e01b03198152309063ff08cde19061149a908a908a90600401612106565b600060405180830381600087803b1580156114b457600080fd5b505af11580156114c8573d6000803e3d6000fd5b505060405163325670f760e11b81523092506364ace1ee91506114f190889088906004016121fd565b600060405180830381600087803b15801561150b57600080fd5b505af1158015610d6d573d6000803e3d6000fd5b50505050505050565b600b5490565b6000546001600160a01b031681565b6040805160a081018252855160608201908152602080880151608084015290825282518084018452865181528682015181830152818301528251808401845285518152858201519181019190915281830152600f549151632cd50d6f60e01b81526000926001600160a01b031690632cd50d6f906115c1908490879060040161229f565b60206040518083038186803b1580156115d957600080fd5b505afa1580156115ed573d6000803e3d6000fd5b505050506040513d601f19601f82011682018060405250810190611611919061200b565b9695505050505050565b6000306001600160a01b031663dd60c8986040518163ffffffff1660e01b815260040160206040518083038186803b15801561165657600080fd5b505afa15801561166a573d6000803e3d6000fd5b505050506040513d601f19601f8201168201806040525081019061168e9190612043565b905060008113156107a45780600114156117f25760005b828110156106cb5760008484838181106116cf57634e487b7160e01b600052603260045260246000fd5b90506020028101906116e1919061231c565b90506001600160401b0381111561170857634e487b7160e01b600052604160045260246000fd5b604051908082528060200260200182016040528015611731578160200160208202803683370190505b50905084848381811061175457634e487b7160e01b600052603260045260246000fd5b9050602002810190611766919061231c565b808060200260200160405190810160405280939291908181526020018383602002808284376000920191909152505060018054939450849390925085915081106117c057634e487b7160e01b600052603260045260246000fd5b9060005260206000200190805190602001906117dd929190611be3565b505080806117ea9061247d565b9150506116a5565b60005b828110156107a257600084848381811061181f57634e487b7160e01b600052603260045260246000fd5b9050602002810190611831919061231c565b90506001600160401b0381111561185857634e487b7160e01b600052604160045260246000fd5b604051908082528060200260200182016040528015611881578160200160208202803683370190505b50905060008585848181106118a657634e487b7160e01b600052603260045260246000fd5b90506020028101906118b8919061231c565b90506001600160401b038111156118df57634e487b7160e01b600052604160045260246000fd5b604051908082528060200260200182016040528015611908578160200160208202803683370190505b50905085858481811061192b57634e487b7160e01b600052603260045260246000fd5b905060200281019061193d919061231c565b8080602002602001604051908101604052809392919081815260200183836020028082843760009201829052506001805495965090949093508792508210905061199757634e487b7160e01b600052603260045260246000fd5b6000918252602090912001546001600160401b038111156119c857634e487b7160e01b600052604160045260246000fd5b6040519080825280602002602001820160405280156119f1578160200160208202803683370190505b50905060018481548110611a1557634e487b7160e01b600052603260045260246000fd5b90600052602060002001805480602002602001604051908101604052809291908181526020018280548015611a6957602002820191906000526020600020905b815481526020019060010190808311611a55575b5050505050905060005b8151811015611b505785828281518110611a9d57634e487b7160e01b600052603260045260246000fd5b6020026020010151848381518110611ac557634e487b7160e01b600052603260045260246000fd5b6020026020010151611ad7919061243e565b611ae19190612404565b828281518110611b0157634e487b7160e01b600052603260045260246000fd5b6020026020010151611b1391906123ab565b848281518110611b3357634e487b7160e01b600052603260045260246000fd5b602090810291909101015280611b488161247d565b915050611a73565b508260018581548110611b7357634e487b7160e01b600052603260045260246000fd5b906000526020600020019080519060200190611b90929190611be3565b505050508080611b9f9061247d565b9150506117f5565b50805460008255906000526020600020908101906105269190611c2e565b50805460008255906000526020600020908101906105269190611c43565b828054828255906000526020600020908101928215611c1e579160200282015b82811115611c1e578251825591602001919060010190611c03565b50611c2a929150611c2e565b5090565b5b80821115611c2a5760008155600101611c2f565b80821115611c2a576000611c578282611ba7565b50600101611c43565b60008083601f840112611c71578182fd5b5081356001600160401b03811115611c87578182fd5b6020830191508360208083028501011115611ca157600080fd5b9250929050565b600082601f830112611cb8578081fd5b6040516116e08082018281106001600160401b0382111715611cdc57611cdc6124ae565b6040528184828101871015611cef578485fd5b8492505b60b7831015611d1357803582526001929092019160209182019101611cf3565b509195945050505050565b8060408101831015611d2f57600080fd5b92915050565b600082601f830112611d45578081fd5b604051604081018181106001600160401b0382111715611d6757611d676124ae565b8060405250808385604086011115611d7d578384fd5b835b6002811015611d13578135835260209283019290910190600101611d7f565b600060208284031215611daf578081fd5b81356001600160a01b0381168114611dc5578182fd5b9392505050565b60008060208385031215611dde578081fd5b82356001600160401b03811115611df3578182fd5b611dff85828601611c60565b90969095509350505050565b60008060008060408587031215611e20578182fd5b84356001600160401b0380821115611e36578384fd5b611e4288838901611c60565b90965094506020870135915080821115611e5a578384fd5b50611e6787828801611c60565b95989497509550505050565b600080600080600080600080611820808a8c031215611e90578485fd5b89356001600160401b0380821115611ea6578687fd5b611eb28d838e01611c60565b909b50995060208c0135915080821115611eca578687fd5b50611ed78c828d01611c60565b9098509650611eeb90508b60408c01611d1e565b94506101008a018b811115611efe578485fd5b60808b019450611f0e8c82611d1e565b9350508a818b011115611f1f578182fd5b50610140890190509295985092959890939650565b60008060208385031215611f46578182fd5b82356001600160401b03811115611df3578283fd5b6000806000806117e08587031215611f71578384fd5b611f7b8686611d35565b9350604086605f870112611f8d578384fd5b6002611fa0611f9b8261238b565b612362565b8083890160c08a018b811115611fb4578889fd5b885b85811015611fdc57611fc88d84611d35565b855260209094019391860191600101611fb6565b50829850611fea8c82611d35565b9750505050505050612000866101008701611ca8565b905092959194509250565b60006020828403121561201c578081fd5b81518015158114611dc5578182fd5b60006020828403121561203c578081fd5b5035919050565b600060208284031215612054578081fd5b5051919050565b60008284526020808501945082825b858110156120865781358752958201959082019060010161206a565b509495945050505050565b6000815180845260208085019450808401835b83811015612086578151875295820195908201906001016120a4565b8060005b60028110156107a25781518452602093840193909101906001016120c4565b80518252602090810151910152565b6001600160a01b0391909116815260200190565b602080825281810183905260009060408482028401810190840186845b8781101561219057868403603f190183528135368a9003601e19018112612148578687fd5b890180356001600160401b0381111561215f578788fd5b86810236038b131561216f578788fd5b61217c868289850161205b565b955050509184019190840190600101612123565b5091979650505050505050565b6000602080830181845280855180835260408601915060408482028701019250838701855b828110156121f057603f198886030184526121de858351612091565b945092850192908501906001016121c2565b5092979650505050505050565b60006020825261221160208301848661205b565b949350505050565b600060208252611dc56020830184612091565b6117e081016040808784376000838201818152879190815b600281101561226457848483379084018281529284019290600101612244565b5050828760c0870137610100850192508083526116e0868437835250909695505050505050565b901515815260200190565b90815260200190565b60006117e0820190506122b38285516120e3565b6020808501516122c76040850182516120c0565b8101516122d760808501826120c0565b5060408501516122ea60c08501826120e3565b5061010083018460005b60b7811015612311578151835291830191908301906001016122f4565b505050509392505050565b6000808335601e19843603018112612332578283fd5b8301803591506001600160401b0382111561234b578283fd5b6020908101925081023603821315611ca157600080fd5b6040518181016001600160401b0381118282101715612383576123836124ae565b604052919050565b60006001600160401b038211156123a4576123a46124ae565b5060200290565b600080821280156001600160ff1b03849003851316156123cd576123cd612498565b600160ff1b83900384128116156123e6576123e6612498565b50500190565b600082198211156123ff576123ff612498565b500190565b60008261241f57634e487b7160e01b81526012600452602481fd5b600160ff1b82146000198414161561243957612439612498565b500590565b60008083128015600160ff1b85018412161561245c5761245c612498565b6001600160ff1b038401831381161561247757612477612498565b50500390565b600060001982141561249157612491612498565b5060010190565b634e487b7160e01b600052601160045260246000fd5b634e487b7160e01b600052604160045260246000fdfe0175b7a638427703f0dbe7bb9bbf987a2551717b34e79f33b5b1008d1fa01db9a26469706673582212200507b572ecf83d2c5e6c4f32515bf0e27493e9830b5edba8b10c93ba46cf2bb164736f6c63430008000033",
  "immutableReferences": {},
  "source": "pragma solidity ^0.8.0;\n\nimport \"./verifier.sol\";\npragma experimental ABIEncoderV2;\n\ncontract FederatedModel{\n    address public administrator;\n\n    //  int256[] private global_weights;\n    //  int256 private global_bias;\n    //    int256 private precision=10000;\n    //   int256 learning_rate;\n    //  uint256 private dimension;\n    //    bool public isTraining=true;\n    //   address[] private participating_devices;\n    //  mapping(address => int256[]) private localWeightsMappings;\n    //    mapping(address => int256) private localBiasMappings;\n\n    int256[][] private temp_global_weights;\n    int256[] private temp_global_bias;\n    int256[][] private global_weights;\n    int256[] private global_bias;\n    int256 private precision;\n    uint256 private round_Number;\n    int256 private learning_rate;\n    uint256 private outputDimension;\n    uint256 private inputDimension;\n    bool private isTraining=true;\n    address[] private participating_devices;\n    uint256 private intervalEnd;\n    uint256 private updateInterval;\n    uint256 private batchSize;\n    Verifier private verifier;\n    bool private initialized = false;\n\n\n    constructor(uint256 id,uint256 od,int256 learning_rate_,int256 precision_,uint256 batchSize_,uint256 updateInterval_)public{\n        learning_rate=learning_rate_;\n        administrator=tx.origin;\n        outputDimension =od;\n        inputDimension =id;\n        batchSize=batchSize_;\n        precision=precision_;\n        intervalEnd = block.timestamp + updateInterval_;\n        updateInterval=updateInterval_;\n        round_Number=1;\n    }\n\n\n    function updateVerifier(address verifier_address) external {\n        verifier=Verifier(verifier_address);\n    }\n\n    function initModel(int256[][] calldata local_weights, int256[] calldata local_bias)external{\n        delete temp_global_weights;\n        delete temp_global_bias;\n        temp_global_bias =new int256[](outputDimension);\n        for(uint256 i=0;i< outputDimension;i++){\n            temp_global_bias[i]=local_bias[i];\n        }\n        for(uint256 i=0;i< outputDimension;i++){\n            int256[] memory temp_row=new int256[](inputDimension);\n            temp_row=local_weights[i];\n            temp_global_weights.push(temp_row);\n        }\n        initialized=true;\n    }\n\n//    function resetModel() external {\n//        delete temp_global_weights;\n//        delete temp_global_bias;\n//        temp_global_bias =new int256[](outputDimension);\n//        for(uint256 i=0;i< outputDimension;i++){\n//            int randomNumber=int(random(i)% outputDimension);\n//            if(randomNumber==0) {\n//                randomNumber=1*precision;\n//            }\n//            if(randomNumber%2==0){\n//                temp_global_bias[i]=randomNumber*precision;\n//            }\n//            else{\n//                temp_global_bias[i]=-randomNumber*precision;\n//            }\n//        }\n//        for(uint256 i=0;i< outputDimension;i++){\n//            int256[] memory temp_row=new int256[](inputDimension);\n//            for(uint256 j=0;j< inputDimension;j++){\n//                int randomNumber=int(random(j)% inputDimension);\n//                if(randomNumber==0) {\n//                    randomNumber=1*precision;\n//                }\n//                if(randomNumber%2==0){\n//                    temp_row[j]=randomNumber*precision;\n//                }\n//                else{\n//                    temp_row[j]=-randomNumber*precision;\n//                }\n//            }\n//            temp_global_weights.push(temp_row);\n//        }\n//    }\n\n    function map_temp_to_global() external onlyAdmin{\n        delete global_bias;\n        delete global_weights;\n\n           for(uint256 i=0;i<temp_global_weights.length;i++){\n                    int256[] memory temp= new int256[](temp_global_weights[i].length);\n                    temp=temp_global_weights[i];\n                    global_weights.push(temp);\n                }\n            for(uint256 i=0;i<temp_global_bias.length;i++){\n                    int256 temp=temp_global_bias[i];\n                    global_bias.push(temp);\n                }\n    }\n\n    function get_global_weights() view external returns(int256[][] memory){\n        return global_weights;\n    }\n\n    function get_global_bias() view external returns(int256[] memory){\n        return global_bias;\n    }\n\n    function time_until_next_update_round() external returns(int256){\n        return int(intervalEnd)-int(block.timestamp);\n    }\n    //\n    function end_update_round() external{\n        if(block.timestamp>=intervalEnd){\n            for(uint256 i=0;i<temp_global_weights.length;i++){\n                    int256[] memory temp= new int256[](temp_global_weights[i].length);\n                    temp=temp_global_weights[i];\n                    global_weights[i]=temp;\n                }\n            for(uint256 i=0;i<temp_global_bias.length;i++){\n                    int256 temp=temp_global_bias[i];\n                    global_bias[i]=temp;\n                }\n            intervalEnd=block.timestamp+updateInterval;\n            delete participating_devices;\n            round_Number=round_Number+1;\n        }\n\n    }\n\n    function is_Training() external returns (bool) {\n        return isTraining;\n    }\n\n    function roundUpdateOutstanding() external returns (bool) {\n        if(initialized){\n        address  user = tx.origin;\n        bool new_user=true;\n        for(uint256 i=0;i<this.participantsCount();i++){\n            if(user==participating_devices[i]){\n                new_user=false;\n            }\n        }\n        return new_user;}\n        else{\n            return false;\n        }\n    }\n    //\n    //\n   function update_with_proof(int256[][] calldata local_weights, int256[] calldata local_bias,uint[2] calldata a,uint[2][2] calldata b, uint[2] calldata c, uint[183] calldata input) external TrainingMode {\n        require(this.checkZKP(a,b,c,input));\n        bool newUser=true;\n        bool firstUser=true;\n        address user=tx.origin;\n        if(this.participantsCount()==0){\n            participating_devices.push(user);\n            this.movingAverageWeights(local_weights);\n            this.movingAverageBias(local_bias);\n        }\n        else{\n            for(uint256 i=0;i<this.participantsCount();i++){\n                if(user==participating_devices[i]){\n                    newUser=false;\n                }\n            }\n            if(newUser){\n                participating_devices.push(user);\n                this.movingAverageWeights(local_weights);\n                this.movingAverageBias(local_bias);\n            }\n        }\n\n\n    }\n\nfunction update_without_proof(int256[][] calldata local_weights, int256[] calldata local_bias) external TrainingMode {\n        bool newUser=true;\n        bool firstUser=true;\n        address user=tx.origin;\n        if(this.participantsCount()==0){\n            participating_devices.push(user);\n            this.movingAverageWeights(local_weights);\n            this.movingAverageBias(local_bias);\n        }\n        else{\n            for(uint256 i=0;i<this.participantsCount();i++){\n                if(user==participating_devices[i]){\n                    newUser=false;\n                }\n            }\n            if(newUser){\n                participating_devices.push(user);\n                this.movingAverageWeights(local_weights);\n                this.movingAverageBias(local_bias);\n            }\n        }\n\n\n    }\n\n\n\n\n    function participantsCount(\n    ) external view returns(uint)  {\n        uint x = participating_devices.length;\n        return x;\n    }\n    //\n    //\n    function movingAverageWeights(int256[][] calldata new_weights) external {\n        int256 k = int256(this.participantsCount());\n        if(k>0){\n            if(k==1){\n                for(uint256 i=0;i<new_weights.length;i++){\n                    int256[] memory temp= new int256[](new_weights[i].length);\n                    temp=new_weights[i];\n                    temp_global_weights[i]=temp;\n                }\n            }\n            else{\n                for(uint256 i=0;i<new_weights.length;i++){\n                    int256[] memory res= new int256[](new_weights[i].length);\n                    int256[] memory row_new= new int256[](new_weights[i].length);\n                    row_new=new_weights[i];\n                    int256[] memory row_old= new int256[](temp_global_weights[i].length);\n                    row_old=temp_global_weights[i];\n                    for(uint256 j=0;j<row_old.length;j++){\n                        res[j]=row_old[j]+(row_new[j]-row_old[j])/k;\n                    }\n                    temp_global_weights[i]=res;\n                }\n            }\n\n        }\n\n    }\n    //\n    function movingAverageBias(int256[] calldata new_bias) external {\n        int256 k = int256(this.participantsCount());\n        if(k>0){\n            if(k==1){\n                for(uint256 i=0;i<new_bias.length;i++){\n                    int256 temp=new_bias[i];\n                    temp_global_bias[i]=temp;\n                }\n            }\n            else{\n                for(uint256 i=0;i<new_bias.length;i++){\n                    int256 old_bias_i=temp_global_bias[i];\n                    int256 new_bias_i=new_bias[i];\n                    int256 res=old_bias_i+(new_bias_i-old_bias_i)/k;\n                    temp_global_bias[i]=res;\n                }\n            }\n\n        }\n    }\n\n    function changeLearningRate(int256 newLearnignRate) external onlyAdmin{\n        learning_rate=newLearnignRate;\n    }\n\n    function getLearningRate()external returns(int256){\n        return learning_rate;\n    }\n\n\n        function getBatchSize()external returns(uint256){\n        return batchSize;\n    }\n    function getRoundNumber()external returns(uint256){\n        return round_Number;\n    }\n\n    function getInputDimension()external returns(uint256){\n        return inputDimension;\n    }\n\n    function getOutputDimension()external returns(uint256){\n        return outputDimension;\n    }\n\n    function getPrecision()external returns(int256){\n        return precision;\n    }\n\n    function changePrecision(int256 newPrecision) external onlyAdmin{\n        precision=newPrecision;\n    }\n\n\n    function checkZKP(uint[2] memory a,uint[2][2] memory b, uint[2] memory c, uint[183] memory input) public returns(bool) {\n        Verifier.Proof memory proof = Verifier.Proof(Pairing.G1Point(a[0],a[1]),Pairing.G2Point(b[0],b[1]),Pairing.G1Point(c[0],c[1]));\n        return verifier.verifyTx(proof,input);\n    }\n\n    function stopTraining() external onlyAdmin{\n        isTraining=false;\n    }\n    function startTraining() external onlyAdmin{\n        isTraining=true;\n    }\n\n    //\n    function random(uint256 seed) private view returns (uint256) {\n        return uint256(keccak256(abi.encodePacked(block.difficulty, block.timestamp, seed)));\n\n    }\n    //\n    modifier onlyAdmin {\n        require(tx.origin == administrator);\n        _;\n    }\n\n    modifier TrainingMode {\n        require(isTraining);\n        _;\n    }\n    modifier RoundFinished {\n        require(int(intervalEnd)-int(block.timestamp)<=0);\n        _;\n    }\n\n\n}\n",
  "sourcePath": "/home/nikolas/PycharmProjects/MasterThesis_SoftwareEngineering/Blockchain/Truffle/contracts/FederatedModel.sol",
  "compiler": {
    "name": "solc",
    "version": "0.8.0+commit.c7dfd78e.Emscripten.clang"
  },
  "schemaVersion": "3.4.3",
  "updatedAt": "2021-11-25T14:55:47.840Z",
  "networkType": "ethereum",
  "devdoc": {
    "kind": "dev",
    "methods": {},
    "version": 1
  },
  "userdoc": {
    "kind": "user",
    "methods": {},
    "version": 1
  }
}